#getrawtransaction 9e48f98e0b27e09ccabf576076c01dc6277c3961c8f616dea154f6822fb17765 true 00000000000000000000b26dde3b7d7cf727dc49e3ac76f55acf749c951a8d23
{
  "in_active_chain": true,
  "txid": "9e48f98e0b27e09ccabf576076c01dc6277c3961c8f616dea154f6822fb17765",
  "hash": "00fec6a8d3732c206c03b81d7c1f0f4c9ecc6d53560f52e807ac70eb20f18bfa",
  "version": 2,
  "size": 4796,
  "vsize": 2702,
  "weight": 10808,
  "locktime": 0,
  "vin": [
    {
      "txid": "8b4f41ab790ad38fda1c517879e515a868ddac4d5b993eee5112feb5164b1100",
      "vout": 0,
      "scriptSig": {
        "asm": "001403fa4c9e95ee6b8863220374db0397b4e52a1a62",
        "hex": "16001403fa4c9e95ee6b8863220374db0397b4e52a1a62"
      },
      "txinwitness": [
        "3044022001ccc1cb9722c72e8b3b3b4097afe4b4d4eea9588ad53635e3fec4c62465aac002207c1d4706fc7cf05f78277230005dcc2662ff596ca48cc4d60efa65eae38a0ab801",
        "0343a3c7c5edb72fd20cfcdca0d42b11cd718bd254bff4887fa276a4fde6836c3a"
      ],
      "sequence": 4294967295
    },
    {
      "txid": "9ae036383d7614169d067effb147d58f5e22ae2772d6f74c13188fee3b0542e4",
      "vout": 25,
      "scriptSig": {
        "asm": "0014727bc58035613ba0ef41239626d6921c56796f59",
        "hex": "160014727bc58035613ba0ef41239626d6921c56796f59"
      },
      "txinwitness": [
        "3044022060249a4d59fc325fbf5ae947c979cbf095e480d55596bc2dbd0bfde38920b7a902205a967363488957ab405274f0e29862a92418bdf69670fce78994233174e6410701",
        "02d9b90d8dae4a54250616d06ead838a6dd2f8e977efc0118b46b4e1ede1918ba3"
      ],
      "sequence": 4294967295
    },
    {
      "txid": "7207cb51e5adb2672752529b5b140974d9d514e4b8ea98d21a661bca3d98f5a9",
      "vout": 56,
      "scriptSig": {
        "asm": "0014afa1688ec93089773cd42574c438b852148a75e3",
        "hex": "160014afa1688ec93089773cd42574c438b852148a75e3"
      },
      "txinwitness": [
        "3044022000dbcdf0d7049789e312991412e03109657362768137ab8d6ddeb4253d42f2bb022009730cd86d4394ef79eb0bda70c67147cbb9dd307054e585e8874ca790fab33901",
        "0396acb01d48f5f5d087efff3d759b0532058f5a87e6a1abd6d5521cad977f401b"
      ],
      "sequence": 4294967295
    },
    {
      "txid": "8ab2231f30932c915ccf8c7407def09010f0db10135ffdf3093fdc66e3af20e3",
      "vout": 0,
      "scriptSig": {
        "asm": "00146f840b4216907270f7b9e02499aea0d342ca5df7",
        "hex": "1600146f840b4216907270f7b9e02499aea0d342ca5df7"
      },
      "txinwitness": [
        "3045022100f234c6822ee34a14849c27ca0a987efdab5b66b2145c528873afac0e6599f0c802204bc1da5eb2d12f936bc41bf02e158f9da639338216ec1ce91c850ab92715aa1d01",
        "03edf1e2ba356dd932f64d40fb1e459f482e451eadf858a79711d3b23b1054e2fa"
      ],
      "sequence": 4294967295
    },
    {
      "txid": "c3b2723b9954433302ca3b203a418ee404e481db26741c9e78c4a32221ae4234",
      "vout": 6,
      "scriptSig": {
        "asm": "0014c286b328eae6566dd32559df04c00a73d3e93e56",
        "hex": "160014c286b328eae6566dd32559df04c00a73d3e93e56"
      },
      "txinwitness": [
        "3044022079c50f6bde07c8f40e5e07b9c96dd85520d9a95182ad816f38a80d821d6519e902200d3f073bade7ff9a4bce77b42f34a3ee6ffde41c9a410741b570106fe159fad201",
        "0331795e2e29c00d5418b6be2289d3a3ad41490e17d1c8158596e1d42f0dbe6cff"
      ],
      "sequence": 4294967295
    },
    {
      "txid": "3a7fca8043df2c086589e5bb0e3aa83c804ec7c220e6ec334ef333e73f45373f",
      "vout": 23,
      "scriptSig": {
        "asm": "0014103bd1496525e7871295d0b4414e790a9f34fdd8",
        "hex": "160014103bd1496525e7871295d0b4414e790a9f34fdd8"
      },
      "txinwitness": [
        "3045022100e07c62e859fad2d7ee5eb04124e61c01168dd66177f1e7960462e84cbdd2b22002200b8565708659c100bcac77197eba38cb98e3f2f6afad762fde1ff1f2578674e701",
        "0332990ab3fe323c8f0f25c676d794a4428062523a4c951cfe3a107544cb143a88"
      ],
      "sequence": 4294967295
    },
    {
      "txid": "5257da8d2036f78664172626c501caaa5c9abcc5724395e003fc6c4152ffe89a",
      "vout": 0,
      "scriptSig": {
        "asm": "0014609ebfe943ea2adca3054e018b4bddd213615cf3",
        "hex": "160014609ebfe943ea2adca3054e018b4bddd213615cf3"
      },
      "txinwitness": [
        "3044022002443e52a0179450f83128d7c49cebbc0abdc109df411934171ad96f7b7a387202203cf844d4a776d662452a3db35d6dc20bc09b3eac02c891ce3d6c83e550b870de01",
        "02edfe3a48594a08a6f310f964a373d0b3dc680478083209f042bb704ce8102576"
      ],
      "sequence": 4294967295
    },
    {
      "txid": "30b82d37499feafff44268376ed168dd2be843fa8bd8cc729f0c4f349f9018c5",
      "vout": 1,
      "scriptSig": {
        "asm": "00144683c3d669e4dc873fc07d95b6360c7eb35d250e",
        "hex": "1600144683c3d669e4dc873fc07d95b6360c7eb35d250e"
      },
      "txinwitness": [
        "304402203c9253ab03d6752073cf3d0e6ffe86fbf467b86a7afd55738da1daba962cdf7e02200d33d658714895a5b45112d1fea9b4dd2258aa89c7e492ddec8dbe6d447ad41001",
        "02e69d14451661ffd1d6327baf7e8d5b5b1d43012f95334f803444d27e67cd7f0a"
      ],
      "sequence": 4294967295
    },
    {
      "txid": "ec5c6a1fa75fe241187e414f1ef9de5970e85497857b3ad6acc69447b1819a7f",
      "vout": 10,
      "scriptSig": {
        "asm": "0014621db2b20233233c9fb97b614df01e9eeacc376b",
        "hex": "160014621db2b20233233c9fb97b614df01e9eeacc376b"
      },
      "txinwitness": [
        "304402206f4fdf2d3e2cffcb129aa5a3d469fd4aecf053d78c37d688d450205118d86845022055085fb0b1e99037d625ea9dba467daeb43c529ecc6ad11d29c18d59500edfc801",
        "02224c0099aae82953670b9bbdc936ee2a26f7d3b538a1016712fdfae8af6141d7"
      ],
      "sequence": 4294967295
    },
    {
      "txid": "3948ce031c61bcfc1215299cd1571a6fa5b42356954683b4573ffd53e083c1a8",
      "vout": 13,
      "scriptSig": {
        "asm": "001421ad97c14a8ccc7a5f1b48992dd524ffc0a2b4f4",
        "hex": "16001421ad97c14a8ccc7a5f1b48992dd524ffc0a2b4f4"
      },
      "txinwitness": [
        "304402202bc617648720e81ac6791ab9bc88b482da180fadde05c4d13662d3c9f167e77a022072b56c88921ed2424563fd7db049684811b84bf1b9dc4cefd465ef1e2230140c01",
        "03759afb6d80611b6777befab845b663414c8a703456f3fbc58d6adbdd42e1a909"
      ],
      "sequence": 4294967295
    },
    {
      "txid": "9876c61123ba56f916a24db5a764fa5d12d63a4a6862e431b75bb394512a5870",
      "vout": 5,
      "scriptSig": {
        "asm": "0014588621703846a8e98861b9c74dab0e959e5dea71",
        "hex": "160014588621703846a8e98861b9c74dab0e959e5dea71"
      },
      "txinwitness": [
        "30450221009eadc1c8ac1967d64d6194fa04919bdf4a8c43a8b80b0bb60d74307202cec761022005e7039590f74184317c4b63e67dfa5c2a6296343e934c584a769dec73048e4501",
        "02a337ce8f564421b93a517328426916ca64d27c2258475c98927d82cfd72db933"
      ],
      "sequence": 4294967295
    },
    {
      "txid": "18c6eabf651bb08a5718cc0d725438ecb72dc1745144d8e3e93d4e05758e2f5f",
      "vout": 17,
      "scriptSig": {
        "asm": "0014d88f122ffb37b3c491ba6d338dfe383390578207",
        "hex": "160014d88f122ffb37b3c491ba6d338dfe383390578207"
      },
      "txinwitness": [
        "3045022100b0645a14cbc60d4a58daac5c5d37ab799530264e93003d55c2a7d15cd427513c022055e7a052ea8851a92d08ed0e2fecbda48a7478390b5a94afb12cbe439049f61c01",
        "03dfb2f185226af48a2cd0e44a9d3c198918a117639df87e001d1048365a109af9"
      ],
      "sequence": 4294967295
    },
    {
      "txid": "a6f6feb293eb3721b9c03b1fa01eda17fb9c43fc602acf5e293b5c77684d2f4d",
      "vout": 0,
      "scriptSig": {
        "asm": "001413bba8944bd92eab2dbbd10621b73bc22cffbcbc",
        "hex": "16001413bba8944bd92eab2dbbd10621b73bc22cffbcbc"
      },
      "txinwitness": [
        "3045022100e54460f6a2751e0c36115226a047e9e959061b849bdb1e4f97a251fa6af15c0a02200d1af6f6c449ebe34c0061828dc223cd924e883f27307da39e9d0b4fabf200d801",
        "023c2b15c0f755986ec4a34eb1ce4a1ebcab747c34f4bd245b787f3285af166101"
      ],
      "sequence": 4294967295
    },
    {
      "txid": "6e4462155e9400a0b75b968e5da5304c1b27b39055c2e89eed88f52982030c6d",
      "vout": 3,
      "scriptSig": {
        "asm": "0014fedd82c1a95b2d7c304b3c91f49a2426456f503e",
        "hex": "160014fedd82c1a95b2d7c304b3c91f49a2426456f503e"
      },
      "txinwitness": [
        "304402200a48cbf5c9d298f8087406699165ed9f0b6594fa0ac2698ca2e30115d8fdaf7402206a0746ead8af976665e0454682e7b7702ecbe572ab3edbe13cc79eff6574915d01",
        "02933be19b4fec88b0d76116d86bc96a4d0422be0d3873f402a618a9a9c764bde4"
      ],
      "sequence": 4294967295
    },
    {
      "txid": "b9e3e2ab872cd126ee221bd1eef8bcdb47c46e9c41a4b1abb3c36ef53fc4e96d",
      "vout": 0,
      "scriptSig": {
        "asm": "001468fc848137d7d07df1ac531689d0b0cc20e0ad70",
        "hex": "16001468fc848137d7d07df1ac531689d0b0cc20e0ad70"
      },
      "txinwitness": [
        "3045022100e50d8d7eca7039cac59d4b925b6d2d92577b6de6e62e48e3b1dc7b246be37c8c022052aff06249bbffa2ebe17f5cc1c03e2006fc1e1b0649298334ac197a9107418901",
        "03df6a959b7d4f00e1e80cbb2009bfe360e52f9de6166d61e647bd29164f12a633"
      ],
      "sequence": 4294967295
    },
    {
      "txid": "b491fb0045cd4f1e4130e400218bc0db9c838b6a667f2bad3da53e087b1d1b04",
      "vout": 0,
      "scriptSig": {
        "asm": "0014d5f5014f9453c0c30f7a9e68dd1d341c72b925e3",
        "hex": "160014d5f5014f9453c0c30f7a9e68dd1d341c72b925e3"
      },
      "txinwitness": [
        "3044022004a8bd66049fb0aec610025e54be6c1e9ee885ecda8c25ef8d16e06824e9243802203464d8e2cda94280651399a483df5432fee44d45e806b9395af56462ce4bd1a701",
        "0379f3b349fe60faed0bfc88ec6786c66fa9acff3b4b14d2b3e8328cda4ded8b38"
      ],
      "sequence": 4294967295
    },
    {
      "txid": "8ab2231f30932c915ccf8c7407def09010f0db10135ffdf3093fdc66e3af20e3",
      "vout": 6,
      "scriptSig": {
        "asm": "00141e05072012c3d9dee70a0b26c148814acbf9732d",
        "hex": "1600141e05072012c3d9dee70a0b26c148814acbf9732d"
      },
      "txinwitness": [
        "3045022100b9d525062cc655c611205d02a040d5959bb8e823bb7894931f23194ed1dd45ea022007b832bd198a8376fc097cedfa3e4452ed78604a8e9a8675b5ece7d3e22fc2a401",
        "03152c416f1acbe367f78fe9bc2ee931c79a0ca739a56c5b3bca38e00d54c74352"
      ],
      "sequence": 4294967295
    },
    {
      "txid": "e12378579d8a2c63967c9ad30518e2aeb5a296163609262379a7d01f1a172c61",
      "vout": 2,
      "scriptSig": {
        "asm": "00143e3b52fbfa68d340bdcb224e0401a0bde7139c2b",
        "hex": "1600143e3b52fbfa68d340bdcb224e0401a0bde7139c2b"
      },
      "txinwitness": [
        "3045022100ab3b24d535ad21d4903e9f7a17935fc0747544f9b15e035bff3d9e14e7a260e20220460e90f03e3c083286b5460d6fc111ff542664931df86d0c692afe370dbbb7da01",
        "035299a12a9e259d3fb9eeab3a47ee63cf73d88f2fd52203753e54d1c7d126c722"
      ],
      "sequence": 4294967295
    },
    {
      "txid": "52507f2f6d02343e9aa6313b48a4761572fe607ff91b615cb1519f2523a5e96a",
      "vout": 0,
      "scriptSig": {
        "asm": "0014622f8f19af87a47db37bf4f1b1cfdfa6f67e7c9e",
        "hex": "160014622f8f19af87a47db37bf4f1b1cfdfa6f67e7c9e"
      },
      "txinwitness": [
        "304402205c350f9e36362493e9f73f63296add89f6dee7143c7540afba9f9782afdb6ebd02201ae7d732b9c153755bec13e38be0860b7970b2ff2ba44ca916e10e25e1b8837201",
        "0396351c862b362109637727ee03d6f1dba0fbd205b53a6f389e512fc67cbd96b3"
      ],
      "sequence": 4294967295
    },
    {
      "txid": "1bf0291b72b33d35f7c411494dde17503ead82a663b2c4e95d971dd67a9ed834",
      "vout": 17,
      "scriptSig": {
        "asm": "0014339baaaec1b3967baf81ca597b82e2ffbb47d74b",
        "hex": "160014339baaaec1b3967baf81ca597b82e2ffbb47d74b"
      },
      "txinwitness": [
        "3044022064d8c09b1ca56ccbab1dbccfd9b8ee1e08136638f827c2950b76e2b04bce168c022058c7e6a8723045842cf386f3bedd3ac6f0f69d8d394e3b9a20a614359477580c01",
        "032a199f5d5c463fe15287afbb51f96f6bff7b8464f3c16f2be1b02e44a85aad44"
      ],
      "sequence": 4294967295
    },
    {
      "txid": "06732ca8132542b27661bb5918b8eb99057c271411ed234d4e31626f33a1e1b5",
      "vout": 7,
      "scriptSig": {
        "asm": "0014ed1d6db6328af2355f72063e92cd0c0c0e1190ab",
        "hex": "160014ed1d6db6328af2355f72063e92cd0c0c0e1190ab"
      },
      "txinwitness": [
        "3044022054113bb0264a7c79a248f5525af6692eb2f2130833c22764babf0baf6b776d320220639e6a3aa008f6e6bebe59e8d6dba6abf4931e51e7002b513b6bda7b07364add01",
        "02ea1e28d10f0795393ba983059171ffed19a892d83433f087073333237ca416b5"
      ],
      "sequence": 4294967295
    },
    {
      "txid": "a3668a812257ff17ed93f8518925fbd09501068c56555f1ba340b23e537dd2f7",
      "vout": 0,
      "scriptSig": {
        "asm": "00143ef31046d066525a1ddc1ac7f8eb754089aa0dc2",
        "hex": "1600143ef31046d066525a1ddc1ac7f8eb754089aa0dc2"
      },
      "txinwitness": [
        "30440220603351681f8dedccfd1bddbcffd12f366a36dad6b36345816e0f31074c1d649b02204da6047a693d2197a83e7126e9fbede495c37a7e6195c06a856afa83ad5a410601",
        "03420c0d3dabfa6ac17c82f3a66fcd17e9f19e852b2e72721c9a6af96395b87e58"
      ],
      "sequence": 4294967295
    },
    {
      "txid": "54c6dc7876348d304fa55001b882b6dc26e8080e5f12bfa31e48cd01d1ed1237",
      "vout": 1,
      "scriptSig": {
        "asm": "00142be2af7e083b4157e4882ffd7763ce4d9530ec2d",
        "hex": "1600142be2af7e083b4157e4882ffd7763ce4d9530ec2d"
      },
      "txinwitness": [
        "3044022034cf58fe7c15b8b93be4f06c1b5a162e2e9892fcd4df5eb490b7fbac3933e42502200120be2b5015963602a29ec543b226d57440bdc054b137f4c7acdbfc7260fb3c01",
        "038daabf8643d7e6728a2c5b28e3a7fe551e2d5e55c8a63b6a6559f82474f677d7"
      ],
      "sequence": 4294967295
    },
    {
      "txid": "988fa63c9c29258c33c58f860c2193d9dd76d5fea4a5a8d4facab78bcc9c8133",
      "vout": 3,
      "scriptSig": {
        "asm": "0014993ac4ea5060d86fd947bbf99fe29f68c3f05d15",
        "hex": "160014993ac4ea5060d86fd947bbf99fe29f68c3f05d15"
      },
      "txinwitness": [
        "304402200d09ed7473f108155d3b9a35fd678e7da54d5505272568eeed78ac587ea995f002205027fcd7c8cd170eb5176792e09fcffaedf6a31dcc9b65783cc5b0121dfd0ca301",
        "0370b1c452105b1818fd328bbb828f95c965f42a626122d52de0483aa6532a0c9e"
      ],
      "sequence": 4294967295
    },
    {
      "txid": "fc87b9cbab750fc2edd3266228d15937aec1423d2ccbb76c0a2964b395a09cc0",
      "vout": 6,
      "scriptSig": {
        "asm": "0014734750f47db08c3df0c96504089e686142d02c6d",
        "hex": "160014734750f47db08c3df0c96504089e686142d02c6d"
      },
      "txinwitness": [
        "304402205b634f9773b1efe70b908f8f1e598a6704bc681aae7c16a2a79c502680df448a0220530dc2bcb6e9d8ceb492332236c4c52933d1574f1cf4606564879776ea3651a201",
        "02f7e21abca976847a287855394bc49a6395b8c33e95ce08e0715ab7490998d89e"
      ],
      "sequence": 4294967295
    },
    {
      "txid": "e5165d976930b6d56c5ecdf0cca53684ba4f06f5d26d7cec6c68f8007c664816",
      "vout": 3,
      "scriptSig": {
        "asm": "001468ffe74657fc33ffdc0a380efacbad637361eb74",
        "hex": "16001468ffe74657fc33ffdc0a380efacbad637361eb74"
      },
      "txinwitness": [
        "304402202c941f90c16403b44fbfbfa7746fdf662f8a31629d8bada0ceb767cf3cee92c20220343232ffd0ca52f501719c294f8059964dd57ce9e0383cc4755170fa44edb0da01",
        "03e1fdf492d6a179219ced7ec684ecccda207b841cd035b31427e7a34012719cb1"
      ],
      "sequence": 4294967295
    }
  ],
  "vout": [
    {
      "value": 0.01000000,
      "n": 0,
      "scriptPubKey": {
        "asm": "OP_HASH160 9eedb19fe75f95ec54543ff73cafaaf0c52c37eb OP_EQUAL",
        "hex": "a9149eedb19fe75f95ec54543ff73cafaaf0c52c37eb87",
        "reqSigs": 1,
        "type": "scripthash",
        "addresses": [
          "3GBMS7PQVhcV5fUzCBT8sE4N65BW5xBo5f"
        ]
      }
    },
    {
      "value": 0.00285799,
      "n": 1,
      "scriptPubKey": {
        "asm": "OP_DUP OP_HASH160 b25726349fbe21cc2976efb871efcd7cc444cb09 OP_EQUALVERIFY OP_CHECKSIG",
        "hex": "76a914b25726349fbe21cc2976efb871efcd7cc444cb0988ac",
        "reqSigs": 1,
        "type": "pubkeyhash",
        "addresses": [
          "1HFygP7MQoSLhBkhR1nLcUgUabmWHGaNqH"
        ]
      }
    },
    {
      "value": 0.00433200,
      "n": 2,
      "scriptPubKey": {
        "asm": "OP_HASH160 42ad19bcd23b4eae8ec665f7af84b16325167b64 OP_EQUAL",
        "hex": "a91442ad19bcd23b4eae8ec665f7af84b16325167b6487",
        "reqSigs": 1,
        "type": "scripthash",
        "addresses": [
          "37mZtSWx3fkVxvYPbpMV3f6cy8athimreh"
        ]
      }
    },
    {
      "value": 0.32272348,
      "n": 3,
      "scriptPubKey": {
        "asm": "OP_DUP OP_HASH160 d58221209badcf0c62e47b388ce34866a3563d96 OP_EQUALVERIFY OP_CHECKSIG",
        "hex": "76a914d58221209badcf0c62e47b388ce34866a3563d9688ac",
        "reqSigs": 1,
        "type": "pubkeyhash",
        "addresses": [
          "1LTvpQk73zPkBbEWNEMCLM9C5PwhWJki2G"
        ]
      }
    },
    {
      "value": 0.00545000,
      "n": 4,
      "scriptPubKey": {
        "asm": "OP_DUP OP_HASH160 c75a85be774e4dfdbbcd755be18c63b5f3e0e4bd OP_EQUALVERIFY OP_CHECKSIG",
        "hex": "76a914c75a85be774e4dfdbbcd755be18c63b5f3e0e4bd88ac",
        "reqSigs": 1,
        "type": "pubkeyhash",
        "addresses": [
          "1KB5unScr9hdoZfuR9zFvMEYmQRenw7w62"
        ]
      }
    },
    {
      "value": 0.00100000,
      "n": 5,
      "scriptPubKey": {
        "asm": "OP_DUP OP_HASH160 8354f623991b341646e7f2ec0eb2f780c83c2a07 OP_EQUALVERIFY OP_CHECKSIG",
        "hex": "76a9148354f623991b341646e7f2ec0eb2f780c83c2a0788ac",
        "reqSigs": 1,
        "type": "pubkeyhash",
        "addresses": [
          "1CyRJMhntXzscYP1Jk4HuZBKt4M1D8nt6D"
        ]
      }
    },
    {
      "value": 0.03333000,
      "n": 6,
      "scriptPubKey": {
        "asm": "OP_HASH160 9730cf919cfc249a61bec8af3266622c5da9fa31 OP_EQUAL",
        "hex": "a9149730cf919cfc249a61bec8af3266622c5da9fa3187",
        "reqSigs": 1,
        "type": "scripthash",
        "addresses": [
          "3FUSRwmUkzmoPfHqhfnA84QVYNnWMpNdJY"
        ]
      }
    },
    {
      "value": 0.15247342,
      "n": 7,
      "scriptPubKey": {
        "asm": "OP_DUP OP_HASH160 a7d7f17a4ead33468a20ad5cf26b17a7bc896a01 OP_EQUALVERIFY OP_CHECKSIG",
        "hex": "76a914a7d7f17a4ead33468a20ad5cf26b17a7bc896a0188ac",
        "reqSigs": 1,
        "type": "pubkeyhash",
        "addresses": [
          "1GJUY3AT7vNKcAw6tski9jt2C9iJpnjWm2"
        ]
      }
    },
    {
      "value": 0.10877580,
      "n": 8,
      "scriptPubKey": {
        "asm": "OP_HASH160 17ba68e3977d75bf87bcd3d475ed003e5a253d71 OP_EQUAL",
        "hex": "a91417ba68e3977d75bf87bcd3d475ed003e5a253d7187",
        "reqSigs": 1,
        "type": "scripthash",
        "addresses": [
          "33rUmvvJdkeE7LnKHLceKeJetQMYYRNLsQ"
        ]
      }
    },
    {
      "value": 0.01034933,
      "n": 9,
      "scriptPubKey": {
        "asm": "OP_HASH160 6b7951bf7d165df60f4b92f8bb2eebf3d91369bf OP_EQUAL",
        "hex": "a9146b7951bf7d165df60f4b92f8bb2eebf3d91369bf87",
        "reqSigs": 1,
        "type": "scripthash",
        "addresses": [
          "3BVHZV3TPPWc1fJEbSBxJH97gAZk35dUCF"
        ]
      }
    }
  ],
  "hex": "0200000000011a00114b16b5fe1251ee3e995b4dacdd68a815e57978511cda8fd30a79ab414f8b000000001716001403fa4c9e95ee6b8863220374db0397b4e52a1a62ffffffffe442053bee8f18134cf7d67227ae225e8fd547b1ff7e069d1614763d3836e09a1900000017160014727bc58035613ba0ef41239626d6921c56796f59ffffffffa9f5983dca1b661ad298eab8e414d5d97409145b9b52522767b2ade551cb07723800000017160014afa1688ec93089773cd42574c438b852148a75e3ffffffffe320afe366dc3f09f3fd5f1310dbf01090f0de07748ccf5c912c93301f23b28a00000000171600146f840b4216907270f7b9e02499aea0d342ca5df7ffffffff3442ae2122a3c4789e1c7426db81e404e48e413a203bca02334354993b72b2c30600000017160014c286b328eae6566dd32559df04c00a73d3e93e56ffffffff3f37453fe733f34e33ece620c2c74e803ca83a0ebbe58965082cdf4380ca7f3a1700000017160014103bd1496525e7871295d0b4414e790a9f34fdd8ffffffff9ae8ff52416cfc03e0954372c5bc9a5caaca01c52626176486f736208dda57520000000017160014609ebfe943ea2adca3054e018b4bddd213615cf3ffffffffc518909f344f0c9f72ccd88bfa43e82bdd68d16e376842f4ffea9f49372db83001000000171600144683c3d669e4dc873fc07d95b6360c7eb35d250effffffff7f9a81b14794c6acd63a7b859754e87059def91e4f417e1841e25fa71f6a5cec0a00000017160014621db2b20233233c9fb97b614df01e9eeacc376bffffffffa8c183e053fd3f57b48346955623b4a56f1a57d19c291512fcbc611c03ce48390d0000001716001421ad97c14a8ccc7a5f1b48992dd524ffc0a2b4f4ffffffff70582a5194b35bb731e462684a3ad6125dfa64a7b54da216f956ba2311c676980500000017160014588621703846a8e98861b9c74dab0e959e5dea71ffffffff5f2f8e75054e3de9e3d8445174c12db7ec3854720dcc18578ab01b65bfeac6181100000017160014d88f122ffb37b3c491ba6d338dfe383390578207ffffffff4d2f4d68775c3b295ecf2a60fc439cfb17da1ea01f3bc0b92137eb93b2fef6a6000000001716001413bba8944bd92eab2dbbd10621b73bc22cffbcbcffffffff6d0c038229f588ed9ee8c25590b3271b4c30a55d8e965bb7a000945e1562446e0300000017160014fedd82c1a95b2d7c304b3c91f49a2426456f503effffffff6de9c43ff56ec3b3abb1a4419c6ec447dbbcf8eed11b22ee26d12c87abe2e3b9000000001716001468fc848137d7d07df1ac531689d0b0cc20e0ad70ffffffff041b1d7b083ea53dad2b7f666a8b839cdbc08b2100e430411e4fcd4500fb91b40000000017160014d5f5014f9453c0c30f7a9e68dd1d341c72b925e3ffffffffe320afe366dc3f09f3fd5f1310dbf01090f0de07748ccf5c912c93301f23b28a06000000171600141e05072012c3d9dee70a0b26c148814acbf9732dffffffff612c171a1fd0a779232609361696a2b5aee21805d39a7c96632c8a9d577823e102000000171600143e3b52fbfa68d340bdcb224e0401a0bde7139c2bffffffff6ae9a523259f51b15c611bf97f60fe721576a4483b31a69a3e34026d2f7f50520000000017160014622f8f19af87a47db37bf4f1b1cfdfa6f67e7c9effffffff34d89e7ad61d975de9c4b263a682ad3e5017de4d4911c4f7353db3721b29f01b1100000017160014339baaaec1b3967baf81ca597b82e2ffbb47d74bffffffffb5e1a1336f62314e4d23ed1114277c0599ebb81859bb6176b2422513a82c73060700000017160014ed1d6db6328af2355f72063e92cd0c0c0e1190abfffffffff7d27d533eb240a31b5f55568c060195d0fb258951f893ed17ff5722818a66a300000000171600143ef31046d066525a1ddc1ac7f8eb754089aa0dc2ffffffff3712edd101cd481ea3bf125f0e08e826dcb682b80150a54f308d347678dcc65401000000171600142be2af7e083b4157e4882ffd7763ce4d9530ec2dffffffff33819ccc8bb7cafad4a8a5a4fed576ddd993210c868fc5338c25299c3ca68f980300000017160014993ac4ea5060d86fd947bbf99fe29f68c3f05d15ffffffffc09ca095b364290a6cb7cb2c3d42c1ae3759d1286226d3edc20f75abcbb987fc0600000017160014734750f47db08c3df0c96504089e686142d02c6dffffffff1648667c00f8686cec7c6dd2f5064fba8436a5ccf0cd5e6cd5b63069975d16e5030000001716001468ffe74657fc33ffdc0a380efacbad637361eb74ffffffff0a40420f000000000017a9149eedb19fe75f95ec54543ff73cafaaf0c52c37eb87675c0400000000001976a914b25726349fbe21cc2976efb871efcd7cc444cb0988ac309c06000000000017a91442ad19bcd23b4eae8ec665f7af84b16325167b6487dc6fec01000000001976a914d58221209badcf0c62e47b388ce34866a3563d9688ace8500800000000001976a914c75a85be774e4dfdbbcd755be18c63b5f3e0e4bd88aca0860100000000001976a9148354f623991b341646e7f2ec0eb2f780c83c2a0788ac88db32000000000017a9149730cf919cfc249a61bec8af3266622c5da9fa3187eea7e800000000001976a914a7d7f17a4ead33468a20ad5cf26b17a7bc896a0188ac8cfaa5000000000017a91417ba68e3977d75bf87bcd3d475ed003e5a253d7187b5ca0f000000000017a9146b7951bf7d165df60f4b92f8bb2eebf3d91369bf8702473044022001ccc1cb9722c72e8b3b3b4097afe4b4d4eea9588ad53635e3fec4c62465aac002207c1d4706fc7cf05f78277230005dcc2662ff596ca48cc4d60efa65eae38a0ab801210343a3c7c5edb72fd20cfcdca0d42b11cd718bd254bff4887fa276a4fde6836c3a02473044022060249a4d59fc325fbf5ae947c979cbf095e480d55596bc2dbd0bfde38920b7a902205a967363488957ab405274f0e29862a92418bdf69670fce78994233174e64107012102d9b90d8dae4a54250616d06ead838a6dd2f8e977efc0118b46b4e1ede1918ba302473044022000dbcdf0d7049789e312991412e03109657362768137ab8d6ddeb4253d42f2bb022009730cd86d4394ef79eb0bda70c67147cbb9dd307054e585e8874ca790fab33901210396acb01d48f5f5d087efff3d759b0532058f5a87e6a1abd6d5521cad977f401b02483045022100f234c6822ee34a14849c27ca0a987efdab5b66b2145c528873afac0e6599f0c802204bc1da5eb2d12f936bc41bf02e158f9da639338216ec1ce91c850ab92715aa1d012103edf1e2ba356dd932f64d40fb1e459f482e451eadf858a79711d3b23b1054e2fa02473044022079c50f6bde07c8f40e5e07b9c96dd85520d9a95182ad816f38a80d821d6519e902200d3f073bade7ff9a4bce77b42f34a3ee6ffde41c9a410741b570106fe159fad201210331795e2e29c00d5418b6be2289d3a3ad41490e17d1c8158596e1d42f0dbe6cff02483045022100e07c62e859fad2d7ee5eb04124e61c01168dd66177f1e7960462e84cbdd2b22002200b8565708659c100bcac77197eba38cb98e3f2f6afad762fde1ff1f2578674e701210332990ab3fe323c8f0f25c676d794a4428062523a4c951cfe3a107544cb143a8802473044022002443e52a0179450f83128d7c49cebbc0abdc109df411934171ad96f7b7a387202203cf844d4a776d662452a3db35d6dc20bc09b3eac02c891ce3d6c83e550b870de012102edfe3a48594a08a6f310f964a373d0b3dc680478083209f042bb704ce81025760247304402203c9253ab03d6752073cf3d0e6ffe86fbf467b86a7afd55738da1daba962cdf7e02200d33d658714895a5b45112d1fea9b4dd2258aa89c7e492ddec8dbe6d447ad410012102e69d14451661ffd1d6327baf7e8d5b5b1d43012f95334f803444d27e67cd7f0a0247304402206f4fdf2d3e2cffcb129aa5a3d469fd4aecf053d78c37d688d450205118d86845022055085fb0b1e99037d625ea9dba467daeb43c529ecc6ad11d29c18d59500edfc8012102224c0099aae82953670b9bbdc936ee2a26f7d3b538a1016712fdfae8af6141d70247304402202bc617648720e81ac6791ab9bc88b482da180fadde05c4d13662d3c9f167e77a022072b56c88921ed2424563fd7db049684811b84bf1b9dc4cefd465ef1e2230140c012103759afb6d80611b6777befab845b663414c8a703456f3fbc58d6adbdd42e1a909024830450221009eadc1c8ac1967d64d6194fa04919bdf4a8c43a8b80b0bb60d74307202cec761022005e7039590f74184317c4b63e67dfa5c2a6296343e934c584a769dec73048e45012102a337ce8f564421b93a517328426916ca64d27c2258475c98927d82cfd72db93302483045022100b0645a14cbc60d4a58daac5c5d37ab799530264e93003d55c2a7d15cd427513c022055e7a052ea8851a92d08ed0e2fecbda48a7478390b5a94afb12cbe439049f61c012103dfb2f185226af48a2cd0e44a9d3c198918a117639df87e001d1048365a109af902483045022100e54460f6a2751e0c36115226a047e9e959061b849bdb1e4f97a251fa6af15c0a02200d1af6f6c449ebe34c0061828dc223cd924e883f27307da39e9d0b4fabf200d80121023c2b15c0f755986ec4a34eb1ce4a1ebcab747c34f4bd245b787f3285af1661010247304402200a48cbf5c9d298f8087406699165ed9f0b6594fa0ac2698ca2e30115d8fdaf7402206a0746ead8af976665e0454682e7b7702ecbe572ab3edbe13cc79eff6574915d012102933be19b4fec88b0d76116d86bc96a4d0422be0d3873f402a618a9a9c764bde402483045022100e50d8d7eca7039cac59d4b925b6d2d92577b6de6e62e48e3b1dc7b246be37c8c022052aff06249bbffa2ebe17f5cc1c03e2006fc1e1b0649298334ac197a91074189012103df6a959b7d4f00e1e80cbb2009bfe360e52f9de6166d61e647bd29164f12a63302473044022004a8bd66049fb0aec610025e54be6c1e9ee885ecda8c25ef8d16e06824e9243802203464d8e2cda94280651399a483df5432fee44d45e806b9395af56462ce4bd1a701210379f3b349fe60faed0bfc88ec6786c66fa9acff3b4b14d2b3e8328cda4ded8b3802483045022100b9d525062cc655c611205d02a040d5959bb8e823bb7894931f23194ed1dd45ea022007b832bd198a8376fc097cedfa3e4452ed78604a8e9a8675b5ece7d3e22fc2a4012103152c416f1acbe367f78fe9bc2ee931c79a0ca739a56c5b3bca38e00d54c7435202483045022100ab3b24d535ad21d4903e9f7a17935fc0747544f9b15e035bff3d9e14e7a260e20220460e90f03e3c083286b5460d6fc111ff542664931df86d0c692afe370dbbb7da0121035299a12a9e259d3fb9eeab3a47ee63cf73d88f2fd52203753e54d1c7d126c7220247304402205c350f9e36362493e9f73f63296add89f6dee7143c7540afba9f9782afdb6ebd02201ae7d732b9c153755bec13e38be0860b7970b2ff2ba44ca916e10e25e1b8837201210396351c862b362109637727ee03d6f1dba0fbd205b53a6f389e512fc67cbd96b302473044022064d8c09b1ca56ccbab1dbccfd9b8ee1e08136638f827c2950b76e2b04bce168c022058c7e6a8723045842cf386f3bedd3ac6f0f69d8d394e3b9a20a614359477580c0121032a199f5d5c463fe15287afbb51f96f6bff7b8464f3c16f2be1b02e44a85aad4402473044022054113bb0264a7c79a248f5525af6692eb2f2130833c22764babf0baf6b776d320220639e6a3aa008f6e6bebe59e8d6dba6abf4931e51e7002b513b6bda7b07364add012102ea1e28d10f0795393ba983059171ffed19a892d83433f087073333237ca416b5024730440220603351681f8dedccfd1bddbcffd12f366a36dad6b36345816e0f31074c1d649b02204da6047a693d2197a83e7126e9fbede495c37a7e6195c06a856afa83ad5a4106012103420c0d3dabfa6ac17c82f3a66fcd17e9f19e852b2e72721c9a6af96395b87e5802473044022034cf58fe7c15b8b93be4f06c1b5a162e2e9892fcd4df5eb490b7fbac3933e42502200120be2b5015963602a29ec543b226d57440bdc054b137f4c7acdbfc7260fb3c0121038daabf8643d7e6728a2c5b28e3a7fe551e2d5e55c8a63b6a6559f82474f677d70247304402200d09ed7473f108155d3b9a35fd678e7da54d5505272568eeed78ac587ea995f002205027fcd7c8cd170eb5176792e09fcffaedf6a31dcc9b65783cc5b0121dfd0ca301210370b1c452105b1818fd328bbb828f95c965f42a626122d52de0483aa6532a0c9e0247304402205b634f9773b1efe70b908f8f1e598a6704bc681aae7c16a2a79c502680df448a0220530dc2bcb6e9d8ceb492332236c4c52933d1574f1cf4606564879776ea3651a2012102f7e21abca976847a287855394bc49a6395b8c33e95ce08e0715ab7490998d89e0247304402202c941f90c16403b44fbfbfa7746fdf662f8a31629d8bada0ceb767cf3cee92c20220343232ffd0ca52f501719c294f8059964dd57ce9e0383cc4755170fa44edb0da012103e1fdf492d6a179219ced7ec684ecccda207b841cd035b31427e7a34012719cb100000000",
  "blockhash": "00000000000000000000b26dde3b7d7cf727dc49e3ac76f55acf749c951a8d23",
  "confirmations": 20,
  "time": 1576001430,
  "blocktime": 1576001430
}
