#getrawtransaction c623634f506375a45ee09379d4b117d5ddb1d02eb04c257d9354cbf0055ad191 true 0000000000000000000b0a682f47f187a712c42badd4ca1989c494d401457c3f
{
  "in_active_chain": true,
  "txid": "c623634f506375a45ee09379d4b117d5ddb1d02eb04c257d9354cbf0055ad191",
  "hash": "89de7de45b53350cd2e00aa92075760ae0e1647bf40ec284c532a93dc4bb7627",
  "version": 2,
  "size": 771,
  "vsize": 527,
  "weight": 2106,
  "locktime": 607784,
  "vin": [
    {
      "txid": "a166b4a766c95e3ca39896cea63fce00007ba1fec05463e03d2b3e2f6f468238",
      "vout": 0,
      "scriptSig": {
        "asm": "00144e2f27e5c2e25195634c7713f691f1d482cfdc45",
        "hex": "1600144e2f27e5c2e25195634c7713f691f1d482cfdc45"
      },
      "txinwitness": [
        "304402203b6c8d47996713857151e1f8e016a452d04db6fdcc5e981255facee21e46178602200fd3fa52621ed5fe6dbb8fbe77e83fbca7d1b326ed410b4a03bac31691ad40ee01",
        "028b3f127bd412556d78663d8bdbd4277b0510663c7e10778aa4bd91f88db95cfd"
      ],
      "sequence": 4294967294
    },
    {
      "txid": "659261aeea830359a339ca659e9f6e2035fc3f581c67b393f5bedcc3eb62dbbe",
      "vout": 0,
      "scriptSig": {
        "asm": "00149a67952f08c8ca8b648760cc07fbfa1a554615a6",
        "hex": "1600149a67952f08c8ca8b648760cc07fbfa1a554615a6"
      },
      "txinwitness": [
        "3045022100baae18165ee34f211eb8eaabdb4b40b9dcbc3d2cd472d4741edd236e780b2394022034188b6671061e74c9dd6c61104738db5ed5b2ca1ad947fe545446e938bc338f01",
        "03d1d0afa87be50294b633a7c7d9e33a523b5003fea45cfda8f715bffc80d66358"
      ],
      "sequence": 4294967294
    },
    {
      "txid": "58997ec7310bc0dcf33b67967b7edbb5f6407b11385902aa65be0a458b2c5ad5",
      "vout": 3,
      "scriptSig": {
        "asm": "3044022015270c23c973b6214252739b277e26796f63d70455a336f33b2023d9c4a91c6502203a3bd1ff63835c71dd04ed57b1a8a8a786701ab564fa35e05e2bfc840f6857ef[ALL] 023479a5d672f57bc363f24729f4154035813ee0206ef970e08e8a6ecc1c580673",
        "hex": "473044022015270c23c973b6214252739b277e26796f63d70455a336f33b2023d9c4a91c6502203a3bd1ff63835c71dd04ed57b1a8a8a786701ab564fa35e05e2bfc840f6857ef0121023479a5d672f57bc363f24729f4154035813ee0206ef970e08e8a6ecc1c580673"
      },
      "sequence": 4294967294
    },
    {
      "txid": "560438ae091a81c9eef875ca18483e6c583365343e908763ba22b8faecb487f3",
      "vout": 0,
      "scriptSig": {
        "asm": "00140736c01aa95363f463f747387eec9157884e2de9",
        "hex": "1600140736c01aa95363f463f747387eec9157884e2de9"
      },
      "txinwitness": [
        "3045022100f6fc7a286c18cda3273d49f2742f255be9b28330f295a6e49db9095870acc90002207a99bdd2caf2a9f1698ea64c4be3f21198dfe9a4c3535b25bba6128f36679a6e01",
        "03a7bcc6fff744df14fd716c712cef7dd6443d9e75851085ec4f33dafcc7772f63"
      ],
      "sequence": 4294967294
    }
  ],
  "vout": [
    {
      "value": 0.00895431,
      "n": 0,
      "scriptPubKey": {
        "asm": "OP_HASH160 064b4245fa5d570c81812448d131ae52f94b1a17 OP_EQUAL",
        "hex": "a914064b4245fa5d570c81812448d131ae52f94b1a1787",
        "reqSigs": 1,
        "type": "scripthash",
        "addresses": [
          "32GJ8mp1EkR2nutoV4Y62cr2yFED5Kxu3q"
        ]
      }
    },
    {
      "value": 0.12680000,
      "n": 1,
      "scriptPubKey": {
        "asm": "OP_HASH160 84da2a5170dc3d945e7977aed42011d051055054 OP_EQUAL",
        "hex": "a91484da2a5170dc3d945e7977aed42011d05105505487",
        "reqSigs": 1,
        "type": "scripthash",
        "addresses": [
          "3DoUUFqBRzcJcfGEM8mgjG3g6bSqo3kKHs"
        ]
      }
    },
    {
      "value": 0.19170448,
      "n": 2,
      "scriptPubKey": {
        "asm": "OP_HASH160 938900677f255ebd62d301a96a84702627911362 OP_EQUAL",
        "hex": "a914938900677f255ebd62d301a96a8470262791136287",
        "reqSigs": 1,
        "type": "scripthash",
        "addresses": [
          "3F97NnAFv8PtJMeYVaYbusoNYF17uTzUU7"
        ]
      }
    }
  ],
  "hex": "020000000001043882466f2f3e2b3de06354c0fea17b0000ce3fa6ce9698a33c5ec966a7b466a100000000171600144e2f27e5c2e25195634c7713f691f1d482cfdc45feffffffbedb62ebc3dcbef593b3671c583ffc35206e9f9e65ca39a3590383eaae61926500000000171600149a67952f08c8ca8b648760cc07fbfa1a554615a6feffffffd55a2c8b450abe65aa025938117b40f6b5db7e7b96673bf3dcc00b31c77e9958030000006a473044022015270c23c973b6214252739b277e26796f63d70455a336f33b2023d9c4a91c6502203a3bd1ff63835c71dd04ed57b1a8a8a786701ab564fa35e05e2bfc840f6857ef0121023479a5d672f57bc363f24729f4154035813ee0206ef970e08e8a6ecc1c580673fefffffff387b4ecfab822ba6387903e346533586c3e4818ca75f8eec9811a09ae38045600000000171600140736c01aa95363f463f747387eec9157884e2de9feffffff03c7a90d000000000017a914064b4245fa5d570c81812448d131ae52f94b1a1787407bc1000000000017a91484da2a5170dc3d945e7977aed42011d05105505487908424010000000017a914938900677f255ebd62d301a96a84702627911362870247304402203b6c8d47996713857151e1f8e016a452d04db6fdcc5e981255facee21e46178602200fd3fa52621ed5fe6dbb8fbe77e83fbca7d1b326ed410b4a03bac31691ad40ee0121028b3f127bd412556d78663d8bdbd4277b0510663c7e10778aa4bd91f88db95cfd02483045022100baae18165ee34f211eb8eaabdb4b40b9dcbc3d2cd472d4741edd236e780b2394022034188b6671061e74c9dd6c61104738db5ed5b2ca1ad947fe545446e938bc338f012103d1d0afa87be50294b633a7c7d9e33a523b5003fea45cfda8f715bffc80d663580002483045022100f6fc7a286c18cda3273d49f2742f255be9b28330f295a6e49db9095870acc90002207a99bdd2caf2a9f1698ea64c4be3f21198dfe9a4c3535b25bba6128f36679a6e012103a7bcc6fff744df14fd716c712cef7dd6443d9e75851085ec4f33dafcc7772f6328460900",
  "blockhash": "0000000000000000000b0a682f47f187a712c42badd4ca1989c494d401457c3f",
  "confirmations": 10,
  "time": 1576151029,
  "blocktime": 1576151029
}

