#getrawtransaction de06af29a80be52bb5f4b6c86998dcfdf0f9e7f66a1ebb7e9d20d65cc6785d8c true 0000000000000000000c466bdff9122c3b539538472993e7fc60a90c8ca5514d
{
  "in_active_chain": true,
  "txid": "de06af29a80be52bb5f4b6c86998dcfdf0f9e7f66a1ebb7e9d20d65cc6785d8c",
  "hash": "b50b73d564b9619b78a783559fd9f7df3ed9fdd191340b3c668a602cfb817a0d",
  "version": 1,
  "size": 382,
  "vsize": 192,
  "weight": 766,
  "locktime": 0,
  "vin": [
    {
      "txid": "58d45912bc944ddebfbca81e5a27477960a5074a6eb85c0de2332ca49ce3a7ae",
      "vout": 4,
      "scriptSig": {
        "asm": "",
        "hex": ""
      },
      "txinwitness": [
        "",
        "304402203b54a8f84d5e26c8dc311c6cb72de7b73a37bdd31172e1af5dde1880732a018a02202787f1d26615038ef898645f57375aa7cfb8915a43d79688b7a7647a8962f5e201",
        "30440220206ea4462d688845fd322fddadedf2ebf11fc5aedd489fcc58cd691f38c6aa3302201ff7f3c7880f4bff26bbd134e3f0adb40684b3707f8e207691fc95576edd6a8901",
        "52210375e00eb72e29da82b89367947f29ef34afb75e8654f6ea368e0acdfd92976b7c2103a1b26313f430c4b15bb1fdce663207659d8cac749a0e53d70eff01874496feff2103c96d495bfdd5ba4145e3e046fee45e84a8a48ad05bd8dbb395c011a32cf9f88053ae"
      ],
      "sequence": 4294967295
    }
  ],
  "vout": [
    {
      "value": 0.12000000,
      "n": 0,
      "scriptPubKey": {
        "asm": "OP_DUP OP_HASH160 1b6517e189434cf8f18cc38ceb88c8fdce25b8f1 OP_EQUALVERIFY OP_CHECKSIG",
        "hex": "76a9141b6517e189434cf8f18cc38ceb88c8fdce25b8f188ac",
        "reqSigs": 1,
        "type": "pubkeyhash",
        "addresses": [
          "13VrMGK9RntptRhd3JXjMr7G2HNiDbCoU4"
        ]
      }
    },
    {
      "value": 0.06802757,
      "n": 1,
      "scriptPubKey": {
        "asm": "0 701a8d401c84fb13e6baf169d59684e17abd9fa216c8cc5b9fc63d622ff8c58d",
        "hex": "0020701a8d401c84fb13e6baf169d59684e17abd9fa216c8cc5b9fc63d622ff8c58d",
        "reqSigs": 1,
        "type": "witness_v0_scripthash",
        "addresses": [
          "bc1qwqdg6squsna38e46795at95yu9atm8azzmyvckulcc7kytlcckxswvvzej"
        ]
      }
    }
  ],
  "hex": "01000000000101aea7e39ca42c33e20d5cb86e4a07a5607947275a1ea8bcbfde4d94bc1259d4580400000000ffffffff02001bb700000000001976a9141b6517e189434cf8f18cc38ceb88c8fdce25b8f188ac45cd670000000000220020701a8d401c84fb13e6baf169d59684e17abd9fa216c8cc5b9fc63d622ff8c58d040047304402203b54a8f84d5e26c8dc311c6cb72de7b73a37bdd31172e1af5dde1880732a018a02202787f1d26615038ef898645f57375aa7cfb8915a43d79688b7a7647a8962f5e2014730440220206ea4462d688845fd322fddadedf2ebf11fc5aedd489fcc58cd691f38c6aa3302201ff7f3c7880f4bff26bbd134e3f0adb40684b3707f8e207691fc95576edd6a89016952210375e00eb72e29da82b89367947f29ef34afb75e8654f6ea368e0acdfd92976b7c2103a1b26313f430c4b15bb1fdce663207659d8cac749a0e53d70eff01874496feff2103c96d495bfdd5ba4145e3e046fee45e84a8a48ad05bd8dbb395c011a32cf9f88053ae00000000",
  "blockhash": "0000000000000000000c466bdff9122c3b539538472993e7fc60a90c8ca5514d",
  "confirmations": 1,
  "time": 1575975091,
  "blocktime": 1575975091
}
