#getrawtransaction d1425c41b1786b4c7464a9431c2c39bc6920a6d5e6a56295bc0b2e3274941d32 true 3ce79e00e0c054f472abb9d101959df37f28656c5c85d855763d1e3a02455e76
{
  "in_active_chain": true,
  "txid": "d1425c41b1786b4c7464a9431c2c39bc6920a6d5e6a56295bc0b2e3274941d32",
  "hash": "6103c024520de06808087b5ce50c9eb9feac865dd6914ef1ef56120375558b0c",
  "version": 2,
  "size": 169,
  "vsize": 142,
  "weight": 568,
  "locktime": 0,
  "vin": [
    {
      "coinbase": "510101",
      "sequence": 4294967295
    }
  ],
  "vout": [
    {
      "value": 50.00000000,
      "n": 0,
      "scriptPubKey": {
        "asm": "OP_HASH160 c23b2cb101848e7e73459bdfcb9796c1154c25ee OP_EQUAL",
        "hex": "a914c23b2cb101848e7e73459bdfcb9796c1154c25ee87",
        "reqSigs": 1,
        "type": "scripthash",
        "addresses": [
          "2NAxDy29mzvKoN4UGmqpWVYHoe1QyJMaLKo"
        ]
      }
    },
    {
      "value": 0.00000000,
      "n": 1,
      "scriptPubKey": {
        "asm": "OP_RETURN aa21a9ede2f61c3f71d1defd3fa999dfa36953755c690689799962b48bebd836974e8cf9",
        "hex": "6a24aa21a9ede2f61c3f71d1defd3fa999dfa36953755c690689799962b48bebd836974e8cf9",
        "type": "nulldata"
      }
    }
  ],
  "hex": "020000000001010000000000000000000000000000000000000000000000000000000000000000ffffffff03510101ffffffff0200f2052a0100000017a914c23b2cb101848e7e73459bdfcb9796c1154c25ee870000000000000000266a24aa21a9ede2f61c3f71d1defd3fa999dfa36953755c690689799962b48bebd836974e8cf90120000000000000000000000000000000000000000000000000000000000000000000000000",
  "blockhash": "3ce79e00e0c054f472abb9d101959df37f28656c5c85d855763d1e3a02455e76",
  "confirmations": 436,
  "time": 1575042480,
  "blocktime": 1575042480
}

