getrawtransaction 640d0279609c9047ebbffb1d0dcf78cbbe2ae12cadd41a28377e1a259ebf5b89 true 00000000000000000009ee9cad611a8ec03d907b051b75e7da6a16ef1948a698
{
  "in_active_chain": true,
  "txid": "640d0279609c9047ebbffb1d0dcf78cbbe2ae12cadd41a28377e1a259ebf5b89",
  "hash": "30d444eb8ed426757ee19713dd741356e43874f7c7d89b751d87cd00e7ef1fab",
  "version": 1,
  "size": 1000,
  "vsize": 806,
  "weight": 3223,
  "locktime": 0,
  "vin": [
    {
      "txid": "65bc95009ce3fcda3c77cb3aee83aa7a65f3384d94aea92f239d132f8420b118",
      "vout": 0,
      "scriptSig": {
        "asm": "0020bcf9f822194145acea0f3235f4107b5bf1a91b6b9f8489f63bf79ec29b360913",
        "hex": "220020bcf9f822194145acea0f3235f4107b5bf1a91b6b9f8489f63bf79ec29b360913"
      },
      "txinwitness": [
        "",
        "3045022100aa2570dde15cdcb834e3490b8d10787decf3c0f6c388e949177d3531e99068c9022053a2decd7f5859cd5f2a583c8c12ba621f09721b3bc74a64d362bb9c2d57b27e01",
        "304402200da46260a1a6b6e7fe0e23372adcf7e9569c9f27501728a5d61ab4a3c74732b302200790fb7ce382c742b8e23f53c302b19a33cba9d68a83f33974b971511e2c712e01",
        "5221026c8f72b9e63db63907115e65d4da86eaae595b22fdc85ec75301bb4adbf203582103806535be3e3920e5eedee92de5714188fd6a784f2bf7b04f87de0b9c3ae1ecdb21024b23bfdce2afcae7e28c42f7f79aa100f22931712c52d7414a526ba494d44a2553ae"
      ],
      "sequence": 4294967295
    },
    {
      "txid": "946eb2e9c44d3880ce6e33622e55db885507fc53cb18efc27b114aaf2db9d2e0",
      "vout": 0,
      "scriptSig": {
        "asm": "30450221008c89d5443e21c6db957ae6238f642e293c501492ad35ab0dc31d79f7f5e3128c02206e6b33b8eead01a1a0cf4e493432c543eb7000ff9077ebded4d6df0f46ab51dd[ALL] 03efb03c939c79c5b2609c4e4cf296455a4e40688d8f5e89dcda25088049b252cb",
        "hex": "4830450221008c89d5443e21c6db957ae6238f642e293c501492ad35ab0dc31d79f7f5e3128c02206e6b33b8eead01a1a0cf4e493432c543eb7000ff9077ebded4d6df0f46ab51dd012103efb03c939c79c5b2609c4e4cf296455a4e40688d8f5e89dcda25088049b252cb"
      },
      "sequence": 4294967295
    },
    {
      "txid": "9ca7f18cc2765b341bf4ad5195adaff2fb199512f130980a1e656cea46d7555a",
      "vout": 0,
      "scriptSig": {
        "asm": "3045022100a37a74bf92e77e80a56838d8d4333111e5dcf7029c0fed82a5f777bd37431b1102202c13c26350215cba09d359cef055170d5629ce28ebbd6ee34c66b4ac2a240c57[ALL] 02bc454fb76c8fb5517c81853458e0cb42c1136869ab7d62250a39261c5c63c43e",
        "hex": "483045022100a37a74bf92e77e80a56838d8d4333111e5dcf7029c0fed82a5f777bd37431b1102202c13c26350215cba09d359cef055170d5629ce28ebbd6ee34c66b4ac2a240c57012102bc454fb76c8fb5517c81853458e0cb42c1136869ab7d62250a39261c5c63c43e"
      },
      "sequence": 4294967295
    },
    {
      "txid": "5133cf36ec8df546f1f6887836acee8f727380476d2871033aa1ca6eb143d803",
      "vout": 0,
      "scriptSig": {
        "asm": "3045022100a152a58ceeaa2a8989bb975e84bf3a68ba740bd31e0dd66d72bad64dac8b39b202201c45aeda6a69e364b72390ed8a28d25b10208f7db23c8b5bb54c7ed6122694c2[ALL] 03f62f4b41ff70a5b6398c961d4c7bae47942ae37b7e1ed00324375af8d005a336",
        "hex": "483045022100a152a58ceeaa2a8989bb975e84bf3a68ba740bd31e0dd66d72bad64dac8b39b202201c45aeda6a69e364b72390ed8a28d25b10208f7db23c8b5bb54c7ed6122694c2012103f62f4b41ff70a5b6398c961d4c7bae47942ae37b7e1ed00324375af8d005a336"
      },
      "sequence": 4294967295
    },
    {
      "txid": "e78d63459acc2570341deae887022bc767863c5a1d75780676e2d1a07794536a",
      "vout": 0,
      "scriptSig": {
        "asm": "3044022075c22dbd96f00c265d8eef217b9c48692334e6cca0c1a49c760b7e47a6273c8202203b25a16ba1aeb6626e4655fbc782253ba1d2666ccdd72638503c1d055d4eeb40[ALL] 02e162d3d6f52b56dbf59f35ea977d5683b546105fbc9a638b64262192b9ed2da4",
        "hex": "473044022075c22dbd96f00c265d8eef217b9c48692334e6cca0c1a49c760b7e47a6273c8202203b25a16ba1aeb6626e4655fbc782253ba1d2666ccdd72638503c1d055d4eeb40012102e162d3d6f52b56dbf59f35ea977d5683b546105fbc9a638b64262192b9ed2da4"
      },
      "sequence": 4294967295
    }
  ],
  "vout": [
    {
      "value": 0.07357023,
      "n": 0,
      "scriptPubKey": {
        "asm": "OP_HASH160 30897cc6c9d69f6a2c2f1c651d51f22219f1a4f6 OP_EQUAL",
        "hex": "a91430897cc6c9d69f6a2c2f1c651d51f22219f1a4f687",
        "reqSigs": 1,
        "type": "scripthash",
        "addresses": [
          "367f4YWz1VCFaqBqwbTrzwi2b1h2U3w1AF"
        ]
      }
    },
    {
      "value": 0.28734702,
      "n": 1,
      "scriptPubKey": {
        "asm": "OP_HASH160 fa68aba99b21ce4bba393eacc17305fe12f9021b OP_EQUAL",
        "hex": "a914fa68aba99b21ce4bba393eacc17305fe12f9021b87",
        "reqSigs": 1,
        "type": "scripthash",
        "addresses": [
          "3QX4F92KDmgVVoR4hRYgDedrrYBeE4qyJz"
        ]
      }
    }
  ],
  "hex": "0100000000010518b120842f139d232fa9ae944d38f3657aaa83ee3acb773cdafce39c0095bc650000000023220020bcf9f822194145acea0f3235f4107b5bf1a91b6b9f8489f63bf79ec29b360913ffffffffe0d2b92daf4a117bc2ef18cb53fc075588db552e62336ece80384dc4e9b26e94000000006b4830450221008c89d5443e21c6db957ae6238f642e293c501492ad35ab0dc31d79f7f5e3128c02206e6b33b8eead01a1a0cf4e493432c543eb7000ff9077ebded4d6df0f46ab51dd012103efb03c939c79c5b2609c4e4cf296455a4e40688d8f5e89dcda25088049b252cbffffffff5a55d746ea6c651e0a9830f1129519fbf2afad9551adf41b345b76c28cf1a79c000000006b483045022100a37a74bf92e77e80a56838d8d4333111e5dcf7029c0fed82a5f777bd37431b1102202c13c26350215cba09d359cef055170d5629ce28ebbd6ee34c66b4ac2a240c57012102bc454fb76c8fb5517c81853458e0cb42c1136869ab7d62250a39261c5c63c43effffffff03d843b16ecaa13a0371286d478073728feeac367888f6f146f58dec36cf3351000000006b483045022100a152a58ceeaa2a8989bb975e84bf3a68ba740bd31e0dd66d72bad64dac8b39b202201c45aeda6a69e364b72390ed8a28d25b10208f7db23c8b5bb54c7ed6122694c2012103f62f4b41ff70a5b6398c961d4c7bae47942ae37b7e1ed00324375af8d005a336ffffffff6a539477a0d1e2760678751d5a3c8667c72b0287e8ea1d347025cc9a45638de7000000006a473044022075c22dbd96f00c265d8eef217b9c48692334e6cca0c1a49c760b7e47a6273c8202203b25a16ba1aeb6626e4655fbc782253ba1d2666ccdd72638503c1d055d4eeb40012102e162d3d6f52b56dbf59f35ea977d5683b546105fbc9a638b64262192b9ed2da4ffffffff025f4270000000000017a91430897cc6c9d69f6a2c2f1c651d51f22219f1a4f687ee74b6010000000017a914fa68aba99b21ce4bba393eacc17305fe12f9021b870400483045022100aa2570dde15cdcb834e3490b8d10787decf3c0f6c388e949177d3531e99068c9022053a2decd7f5859cd5f2a583c8c12ba621f09721b3bc74a64d362bb9c2d57b27e0147304402200da46260a1a6b6e7fe0e23372adcf7e9569c9f27501728a5d61ab4a3c74732b302200790fb7ce382c742b8e23f53c302b19a33cba9d68a83f33974b971511e2c712e01695221026c8f72b9e63db63907115e65d4da86eaae595b22fdc85ec75301bb4adbf203582103806535be3e3920e5eedee92de5714188fd6a784f2bf7b04f87de0b9c3ae1ecdb21024b23bfdce2afcae7e28c42f7f79aa100f22931712c52d7414a526ba494d44a2553ae0000000000000000",
  "blockhash": "00000000000000000009ee9cad611a8ec03d907b051b75e7da6a16ef1948a698",
  "confirmations": 153,
  "time": 1575898490,
  "blocktime": 1575898490
}

